{
    "_format": "hh-sol-artifact-1",
    "contractName": "TiredPunksNFT",
    "sourceName": "contracts/TiredPunksNFT.sol",
    "abi": [
        {
            "inputs": [],
            "stateMutability": "payable",
            "type": "constructor"
        },
        {
            "anonymous": false,
            "inputs": [
                {
                    "indexed": true,
                    "internalType": "address",
                    "name": "owner",
                    "type": "address"
                },
                {
                    "indexed": true,
                    "internalType": "address",
                    "name": "approved",
                    "type": "address"
                },
                {
                    "indexed": true,
                    "internalType": "uint256",
                    "name": "tokenId",
                    "type": "uint256"
                }
            ],
            "name": "Approval",
            "type": "event"
        },
        {
            "anonymous": false,
            "inputs": [
                {
                    "indexed": true,
                    "internalType": "address",
                    "name": "owner",
                    "type": "address"
                },
                {
                    "indexed": true,
                    "internalType": "address",
                    "name": "operator",
                    "type": "address"
                },
                {
                    "indexed": false,
                    "internalType": "bool",
                    "name": "approved",
                    "type": "bool"
                }
            ],
            "name": "ApprovalForAll",
            "type": "event"
        },
        {
            "anonymous": false,
            "inputs": [
                {
                    "indexed": true,
                    "internalType": "address",
                    "name": "previousOwner",
                    "type": "address"
                },
                {
                    "indexed": true,
                    "internalType": "address",
                    "name": "newOwner",
                    "type": "address"
                }
            ],
            "name": "OwnershipTransferred",
            "type": "event"
        },
        {
            "anonymous": false,
            "inputs": [
                {
                    "indexed": true,
                    "internalType": "address",
                    "name": "from",
                    "type": "address"
                },
                {
                    "indexed": true,
                    "internalType": "address",
                    "name": "to",
                    "type": "address"
                },
                {
                    "indexed": true,
                    "internalType": "uint256",
                    "name": "tokenId",
                    "type": "uint256"
                }
            ],
            "name": "Transfer",
            "type": "event"
        },
        {
            "inputs": [
                {
                    "internalType": "address",
                    "name": "to",
                    "type": "address"
                },
                {
                    "internalType": "uint256",
                    "name": "tokenId",
                    "type": "uint256"
                }
            ],
            "name": "approve",
            "outputs": [],
            "stateMutability": "nonpayable",
            "type": "function"
        },
        {
            "inputs": [
                {
                    "internalType": "address",
                    "name": "owner",
                    "type": "address"
                }
            ],
            "name": "balanceOf",
            "outputs": [
                {
                    "internalType": "uint256",
                    "name": "",
                    "type": "uint256"
                }
            ],
            "stateMutability": "view",
            "type": "function"
        },
        {
            "inputs": [
                {
                    "internalType": "uint256",
                    "name": "tokenId",
                    "type": "uint256"
                }
            ],
            "name": "getApproved",
            "outputs": [
                {
                    "internalType": "address",
                    "name": "",
                    "type": "address"
                }
            ],
            "stateMutability": "view",
            "type": "function"
        },
        {
            "inputs": [
                {
                    "internalType": "address",
                    "name": "owner",
                    "type": "address"
                },
                {
                    "internalType": "address",
                    "name": "operator",
                    "type": "address"
                }
            ],
            "name": "isApprovedForAll",
            "outputs": [
                {
                    "internalType": "bool",
                    "name": "",
                    "type": "bool"
                }
            ],
            "stateMutability": "view",
            "type": "function"
        },
        {
            "inputs": [],
            "name": "isPublicMintEnabled",
            "outputs": [
                {
                    "internalType": "bool",
                    "name": "",
                    "type": "bool"
                }
            ],
            "stateMutability": "view",
            "type": "function"
        },
        {
            "inputs": [],
            "name": "maxPerWallet",
            "outputs": [
                {
                    "internalType": "uint256",
                    "name": "",
                    "type": "uint256"
                }
            ],
            "stateMutability": "view",
            "type": "function"
        },
        {
            "inputs": [],
            "name": "maxSupply",
            "outputs": [
                {
                    "internalType": "uint256",
                    "name": "",
                    "type": "uint256"
                }
            ],
            "stateMutability": "view",
            "type": "function"
        },
        {
            "inputs": [
                {
                    "internalType": "uint256",
                    "name": "quantity_",
                    "type": "uint256"
                }
            ],
            "name": "mint",
            "outputs": [],
            "stateMutability": "payable",
            "type": "function"
        },
        {
            "inputs": [],
            "name": "mintPrice",
            "outputs": [
                {
                    "internalType": "uint256",
                    "name": "",
                    "type": "uint256"
                }
            ],
            "stateMutability": "view",
            "type": "function"
        },
        {
            "inputs": [],
            "name": "name",
            "outputs": [
                {
                    "internalType": "string",
                    "name": "",
                    "type": "string"
                }
            ],
            "stateMutability": "view",
            "type": "function"
        },
        {
            "inputs": [],
            "name": "owner",
            "outputs": [
                {
                    "internalType": "address",
                    "name": "",
                    "type": "address"
                }
            ],
            "stateMutability": "view",
            "type": "function"
        },
        {
            "inputs": [
                {
                    "internalType": "uint256",
                    "name": "tokenId",
                    "type": "uint256"
                }
            ],
            "name": "ownerOf",
            "outputs": [
                {
                    "internalType": "address",
                    "name": "",
                    "type": "address"
                }
            ],
            "stateMutability": "view",
            "type": "function"
        },
        {
            "inputs": [],
            "name": "renounceOwnership",
            "outputs": [],
            "stateMutability": "nonpayable",
            "type": "function"
        },
        {
            "inputs": [
                {
                    "internalType": "address",
                    "name": "from",
                    "type": "address"
                },
                {
                    "internalType": "address",
                    "name": "to",
                    "type": "address"
                },
                {
                    "internalType": "uint256",
                    "name": "tokenId",
                    "type": "uint256"
                }
            ],
            "name": "safeTransferFrom",
            "outputs": [],
            "stateMutability": "nonpayable",
            "type": "function"
        },
        {
            "inputs": [
                {
                    "internalType": "address",
                    "name": "from",
                    "type": "address"
                },
                {
                    "internalType": "address",
                    "name": "to",
                    "type": "address"
                },
                {
                    "internalType": "uint256",
                    "name": "tokenId",
                    "type": "uint256"
                },
                {
                    "internalType": "bytes",
                    "name": "_data",
                    "type": "bytes"
                }
            ],
            "name": "safeTransferFrom",
            "outputs": [],
            "stateMutability": "nonpayable",
            "type": "function"
        },
        {
            "inputs": [
                {
                    "internalType": "address",
                    "name": "operator",
                    "type": "address"
                },
                {
                    "internalType": "bool",
                    "name": "approved",
                    "type": "bool"
                }
            ],
            "name": "setApprovalForAll",
            "outputs": [],
            "stateMutability": "nonpayable",
            "type": "function"
        },
        {
            "inputs": [
                {
                    "internalType": "string",
                    "name": "baseTokenURI_",
                    "type": "string"
                }
            ],
            "name": "setBaseTokenUri",
            "outputs": [],
            "stateMutability": "nonpayable",
            "type": "function"
        },
        {
            "inputs": [
                {
                    "internalType": "bool",
                    "name": "isPublicMintEnabled_",
                    "type": "bool"
                }
            ],
            "name": "setIsPublicMintEnabled",
            "outputs": [],
            "stateMutability": "nonpayable",
            "type": "function"
        },
        {
            "inputs": [
                {
                    "internalType": "bytes4",
                    "name": "interfaceId",
                    "type": "bytes4"
                }
            ],
            "name": "supportsInterface",
            "outputs": [
                {
                    "internalType": "bool",
                    "name": "",
                    "type": "bool"
                }
            ],
            "stateMutability": "view",
            "type": "function"
        },
        {
            "inputs": [],
            "name": "symbol",
            "outputs": [
                {
                    "internalType": "string",
                    "name": "",
                    "type": "string"
                }
            ],
            "stateMutability": "view",
            "type": "function"
        },
        {
            "inputs": [
                {
                    "internalType": "uint256",
                    "name": "tokenId_",
                    "type": "uint256"
                }
            ],
            "name": "tokenURI",
            "outputs": [
                {
                    "internalType": "string",
                    "name": "",
                    "type": "string"
                }
            ],
            "stateMutability": "view",
            "type": "function"
        },
        {
            "inputs": [],
            "name": "totalSupply",
            "outputs": [
                {
                    "internalType": "uint256",
                    "name": "",
                    "type": "uint256"
                }
            ],
            "stateMutability": "view",
            "type": "function"
        },
        {
            "inputs": [
                {
                    "internalType": "address",
                    "name": "from",
                    "type": "address"
                },
                {
                    "internalType": "address",
                    "name": "to",
                    "type": "address"
                },
                {
                    "internalType": "uint256",
                    "name": "tokenId",
                    "type": "uint256"
                }
            ],
            "name": "transferFrom",
            "outputs": [],
            "stateMutability": "nonpayable",
            "type": "function"
        },
        {
            "inputs": [
                {
                    "internalType": "address",
                    "name": "newOwner",
                    "type": "address"
                }
            ],
            "name": "transferOwnership",
            "outputs": [],
            "stateMutability": "nonpayable",
            "type": "function"
        },
        {
            "inputs": [
                {
                    "internalType": "address",
                    "name": "",
                    "type": "address"
                }
            ],
            "name": "walletMints",
            "outputs": [
                {
                    "internalType": "uint256",
                    "name": "",
                    "type": "uint256"
                }
            ],
            "stateMutability": "view",
            "type": "function"
        },
        {
            "inputs": [],
            "name": "withdraw",
            "outputs": [],
            "stateMutability": "nonpayable",
            "type": "function"
        },
        {
            "inputs": [],
            "name": "withdrawWallet",
            "outputs": [
                {
                    "internalType": "address payable",
                    "name": "",
                    "type": "address"
                }
            ],
            "stateMutability": "view",
            "type": "function"
        }
    ],
    "bytecode": "0x60806040526040518060400160405280600a81526020017f546972656450756e6b73000000000000000000000000000000000000000000008152506040518060400160405280600281526020017f5450000000000000000000000000000000000000000000000000000000000000815250816000908051906020019062000088929190620001bf565b508060019080519060200190620000a1929190620001bf565b505050620000c4620000b8620000f160201b60201c565b620000f960201b60201c565b66470de4df82000060078190555060006008819055506103e86009819055506003600a81905550620002d4565b600033905090565b6000600660009054906101000a900473ffffffffffffffffffffffffffffffffffffffff16905081600660006101000a81548173ffffffffffffffffffffffffffffffffffffffff021916908373ffffffffffffffffffffffffffffffffffffffff1602179055508173ffffffffffffffffffffffffffffffffffffffff168173ffffffffffffffffffffffffffffffffffffffff167f8be0079c531659141344cd1fd0a4f28419497f9722a3daafe3b4186f6b6457e060405160405180910390a35050565b828054620001cd906200026f565b90600052602060002090601f016020900481019282620001f157600085556200023d565b82601f106200020c57805160ff19168380011785556200023d565b828001600101855582156200023d579182015b828111156200023c5782518255916020019190600101906200021f565b5b5090506200024c919062000250565b5090565b5b808211156200026b57600081600090555060010162000251565b5090565b600060028204905060018216806200028857607f821691505b602082108114156200029f576200029e620002a5565b5b50919050565b7f4e487b7100000000000000000000000000000000000000000000000000000000600052602260045260246000fd5b61380680620002e46000396000f3fe60806040526004361061019c5760003560e01c806370a08231116100ec578063a22cb4651161008a578063d5abeb0111610064578063d5abeb0114610593578063e985e9c5146105be578063f0293fd3146105fb578063f2fde38b146106385761019c565b8063a22cb46514610504578063b88d4fde1461052d578063c87b56dd146105565761019c565b80638da5cb5b116100c65780638da5cb5b1461046957806395652cfa1461049457806395d89b41146104bd578063a0712d68146104e85761019c565b806370a08231146103ea578063715018a61461042757806385d178f41461043e5761019c565b80632373ac221161015957806342842e0e1161013357806342842e0e1461032e578063453c2310146103575780636352211e146103825780636817c76c146103bf5761019c565b80632373ac22146102c557806323b872dd146102ee5780633ccfd60b146103175761019c565b80630116bc2d146101a157806301ffc9a7146101cc57806306fdde0314610209578063081812fc14610234578063095ea7b31461027157806318160ddd1461029a575b600080fd5b3480156101ad57600080fd5b506101b6610661565b6040516101c39190612a9f565b60405180910390f35b3480156101d857600080fd5b506101f360048036038101906101ee9190612496565b610674565b6040516102009190612a9f565b60405180910390f35b34801561021557600080fd5b5061021e610756565b60405161022b9190612aba565b60405180910390f35b34801561024057600080fd5b5061025b6004803603810190610256919061252d565b6107e8565b6040516102689190612a1d565b60405180910390f35b34801561027d57600080fd5b5061029860048036038101906102939190612431565b61086d565b005b3480156102a657600080fd5b506102af610985565b6040516102bc9190612d7c565b60405180910390f35b3480156102d157600080fd5b506102ec60048036038101906102e7919061246d565b61098b565b005b3480156102fa57600080fd5b506103156004803603810190610310919061232b565b610a24565b005b34801561032357600080fd5b5061032c610a84565b005b34801561033a57600080fd5b506103556004803603810190610350919061232b565b610bd1565b005b34801561036357600080fd5b5061036c610bf1565b6040516103799190612d7c565b60405180910390f35b34801561038e57600080fd5b506103a960048036038101906103a4919061252d565b610bf7565b6040516103b69190612a1d565b60405180910390f35b3480156103cb57600080fd5b506103d4610ca9565b6040516103e19190612d7c565b60405180910390f35b3480156103f657600080fd5b50610411600480360381019061040c91906122c6565b610caf565b60405161041e9190612d7c565b60405180910390f35b34801561043357600080fd5b5061043c610d67565b005b34801561044a57600080fd5b50610453610def565b6040516104609190612a38565b60405180910390f35b34801561047557600080fd5b5061047e610e15565b60405161048b9190612a1d565b60405180910390f35b3480156104a057600080fd5b506104bb60048036038101906104b691906124e8565b610e3f565b005b3480156104c957600080fd5b506104d2610ed1565b6040516104df9190612aba565b60405180910390f35b61050260048036038101906104fd919061252d565b610f63565b005b34801561051057600080fd5b5061052b600480360381019061052691906123f5565b61113b565b005b34801561053957600080fd5b50610554600480360381019061054f919061237a565b611151565b005b34801561056257600080fd5b5061057d6004803603810190610578919061252d565b6111b3565b60405161058a9190612aba565b60405180910390f35b34801561059f57600080fd5b506105a861122f565b6040516105b59190612d7c565b60405180910390f35b3480156105ca57600080fd5b506105e560048036038101906105e091906122ef565b611235565b6040516105f29190612a9f565b60405180910390f35b34801561060757600080fd5b50610622600480360381019061061d91906122c6565b6112c9565b60405161062f9190612d7c565b60405180910390f35b34801561064457600080fd5b5061065f600480360381019061065a91906122c6565b6112e1565b005b600b60009054906101000a900460ff1681565b60007f80ac58cd000000000000000000000000000000000000000000000000000000007bffffffffffffffffffffffffffffffffffffffffffffffffffffffff1916827bffffffffffffffffffffffffffffffffffffffffffffffffffffffff1916148061073f57507f5b5e139f000000000000000000000000000000000000000000000000000000007bffffffffffffffffffffffffffffffffffffffffffffffffffffffff1916827bffffffffffffffffffffffffffffffffffffffffffffffffffffffff1916145b8061074f575061074e826113d9565b5b9050919050565b6060600080546107659061302d565b80601f01602080910402602001604051908101604052809291908181526020018280546107919061302d565b80156107de5780601f106107b3576101008083540402835291602001916107de565b820191906000526020600020905b8154815290600101906020018083116107c157829003601f168201915b5050505050905090565b60006107f382611443565b610832576040517f08c379a000000000000000000000000000000000000000000000000000000000815260040161082990612c7c565b60405180910390fd5b6004600083815260200190815260200160002060009054906101000a900473ffffffffffffffffffffffffffffffffffffffff169050919050565b600061087882610bf7565b90508073ffffffffffffffffffffffffffffffffffffffff168373ffffffffffffffffffffffffffffffffffffffff1614156108e9576040517f08c379a00000000000000000000000000000000000000000000000000000000081526004016108e090612cdc565b60405180910390fd5b8073ffffffffffffffffffffffffffffffffffffffff166109086114af565b73ffffffffffffffffffffffffffffffffffffffff1614806109375750610936816109316114af565b611235565b5b610976576040517f08c379a000000000000000000000000000000000000000000000000000000000815260040161096d90612bfc565b60405180910390fd5b61098083836114b7565b505050565b60085481565b6109936114af565b73ffffffffffffffffffffffffffffffffffffffff166109b1610e15565b73ffffffffffffffffffffffffffffffffffffffff1614610a07576040517f08c379a00000000000000000000000000000000000000000000000000000000081526004016109fe90612c9c565b60405180910390fd5b80600b60006101000a81548160ff02191690831515021790555050565b610a35610a2f6114af565b82611570565b610a74576040517f08c379a0000000000000000000000000000000000000000000000000000000008152600401610a6b90612cfc565b60405180910390fd5b610a7f83838361164e565b505050565b610a8c6114af565b73ffffffffffffffffffffffffffffffffffffffff16610aaa610e15565b73ffffffffffffffffffffffffffffffffffffffff1614610b00576040517f08c379a0000000000000000000000000000000000000000000000000000000008152600401610af790612c9c565b60405180910390fd5b6000600d60009054906101000a900473ffffffffffffffffffffffffffffffffffffffff1673ffffffffffffffffffffffffffffffffffffffff1647604051610b4890612a08565b60006040518083038185875af1925050503d8060008114610b85576040519150601f19603f3d011682016040523d82523d6000602084013e610b8a565b606091505b5050905080610bce576040517f08c379a0000000000000000000000000000000000000000000000000000000008152600401610bc590612b7c565b60405180910390fd5b50565b610bec83838360405180602001604052806000815250611151565b505050565b600a5481565b6000806002600084815260200190815260200160002060009054906101000a900473ffffffffffffffffffffffffffffffffffffffff169050600073ffffffffffffffffffffffffffffffffffffffff168173ffffffffffffffffffffffffffffffffffffffff161415610ca0576040517f08c379a0000000000000000000000000000000000000000000000000000000008152600401610c9790612c3c565b60405180910390fd5b80915050919050565b60075481565b60008073ffffffffffffffffffffffffffffffffffffffff168273ffffffffffffffffffffffffffffffffffffffff161415610d20576040517f08c379a0000000000000000000000000000000000000000000000000000000008152600401610d1790612c1c565b60405180910390fd5b600360008373ffffffffffffffffffffffffffffffffffffffff1673ffffffffffffffffffffffffffffffffffffffff168152602001908152602001600020549050919050565b610d6f6114af565b73ffffffffffffffffffffffffffffffffffffffff16610d8d610e15565b73ffffffffffffffffffffffffffffffffffffffff1614610de3576040517f08c379a0000000000000000000000000000000000000000000000000000000008152600401610dda90612c9c565b60405180910390fd5b610ded60006118b5565b565b600d60009054906101000a900473ffffffffffffffffffffffffffffffffffffffff1681565b6000600660009054906101000a900473ffffffffffffffffffffffffffffffffffffffff16905090565b610e476114af565b73ffffffffffffffffffffffffffffffffffffffff16610e65610e15565b73ffffffffffffffffffffffffffffffffffffffff1614610ebb576040517f08c379a0000000000000000000000000000000000000000000000000000000008152600401610eb290612c9c565b60405180910390fd5b8181600c9190610ecc929190612108565b505050565b606060018054610ee09061302d565b80601f0160208091040260200160405190810160405280929190818152602001828054610f0c9061302d565b8015610f595780601f10610f2e57610100808354040283529160200191610f59565b820191906000526020600020905b815481529060010190602001808311610f3c57829003601f168201915b5050505050905090565b600b60009054906101000a900460ff16610fb2576040517f08c379a0000000000000000000000000000000000000000000000000000000008152600401610fa990612cbc565b60405180910390fd5b80600754610fc09190612ed7565b341015611002576040517f08c379a0000000000000000000000000000000000000000000000000000000008152600401610ff990612b1c565b60405180910390fd5b600954816008546110139190612e50565b1115611054576040517f08c379a000000000000000000000000000000000000000000000000000000000815260040161104b90612d1c565b60405180910390fd5b600a5481600e60003373ffffffffffffffffffffffffffffffffffffffff1673ffffffffffffffffffffffffffffffffffffffff168152602001908152602001600020546110a29190612e50565b11156110e3576040517f08c379a00000000000000000000000000000000000000000000000000000000081526004016110da90612d5c565b60405180910390fd5b60005b8181101561113757600060016008546110ff9190612e50565b90506008600081548092919061111490613090565b9190505550611123338261197b565b50808061112f90613090565b9150506110e6565b5050565b61114d6111466114af565b8383611999565b5050565b61116261115c6114af565b83611570565b6111a1576040517f08c379a000000000000000000000000000000000000000000000000000000000815260040161119890612cfc565b60405180910390fd5b6111ad84848484611b06565b50505050565b60606111be82611443565b6111fd576040517f08c379a00000000000000000000000000000000000000000000000000000000081526004016111f490612d3c565b60405180910390fd5b600c61120883611b62565b6040516020016112199291906129d9565b6040516020818303038152906040529050919050565b60095481565b6000600560008473ffffffffffffffffffffffffffffffffffffffff1673ffffffffffffffffffffffffffffffffffffffff16815260200190815260200160002060008373ffffffffffffffffffffffffffffffffffffffff1673ffffffffffffffffffffffffffffffffffffffff16815260200190815260200160002060009054906101000a900460ff16905092915050565b600e6020528060005260406000206000915090505481565b6112e96114af565b73ffffffffffffffffffffffffffffffffffffffff16611307610e15565b73ffffffffffffffffffffffffffffffffffffffff161461135d576040517f08c379a000000000000000000000000000000000000000000000000000000000815260040161135490612c9c565b60405180910390fd5b600073ffffffffffffffffffffffffffffffffffffffff168173ffffffffffffffffffffffffffffffffffffffff1614156113cd576040517f08c379a00000000000000000000000000000000000000000000000000000000081526004016113c490612afc565b60405180910390fd5b6113d6816118b5565b50565b60007f01ffc9a7000000000000000000000000000000000000000000000000000000007bffffffffffffffffffffffffffffffffffffffffffffffffffffffff1916827bffffffffffffffffffffffffffffffffffffffffffffffffffffffff1916149050919050565b60008073ffffffffffffffffffffffffffffffffffffffff166002600084815260200190815260200160002060009054906101000a900473ffffffffffffffffffffffffffffffffffffffff1673ffffffffffffffffffffffffffffffffffffffff1614159050919050565b600033905090565b816004600083815260200190815260200160002060006101000a81548173ffffffffffffffffffffffffffffffffffffffff021916908373ffffffffffffffffffffffffffffffffffffffff160217905550808273ffffffffffffffffffffffffffffffffffffffff1661152a83610bf7565b73ffffffffffffffffffffffffffffffffffffffff167f8c5be1e5ebec7d5bd14f71427d1e84f3dd0314c0f7b2291e5b200ac8c7c3b92560405160405180910390a45050565b600061157b82611443565b6115ba576040517f08c379a00000000000000000000000000000000000000000000000000000000081526004016115b190612bdc565b60405180910390fd5b60006115c583610bf7565b90508073ffffffffffffffffffffffffffffffffffffffff168473ffffffffffffffffffffffffffffffffffffffff16148061163457508373ffffffffffffffffffffffffffffffffffffffff1661161c846107e8565b73ffffffffffffffffffffffffffffffffffffffff16145b8061164557506116448185611235565b5b91505092915050565b8273ffffffffffffffffffffffffffffffffffffffff1661166e82610bf7565b73ffffffffffffffffffffffffffffffffffffffff16146116c4576040517f08c379a00000000000000000000000000000000000000000000000000000000081526004016116bb90612b3c565b60405180910390fd5b600073ffffffffffffffffffffffffffffffffffffffff168273ffffffffffffffffffffffffffffffffffffffff161415611734576040517f08c379a000000000000000000000000000000000000000000000000000000000815260040161172b90612b9c565b60405180910390fd5b61173f838383611d0f565b61174a6000826114b7565b6001600360008573ffffffffffffffffffffffffffffffffffffffff1673ffffffffffffffffffffffffffffffffffffffff168152602001908152602001600020600082825461179a9190612f31565b925050819055506001600360008473ffffffffffffffffffffffffffffffffffffffff1673ffffffffffffffffffffffffffffffffffffffff16815260200190815260200160002060008282546117f19190612e50565b92505081905550816002600083815260200190815260200160002060006101000a81548173ffffffffffffffffffffffffffffffffffffffff021916908373ffffffffffffffffffffffffffffffffffffffff160217905550808273ffffffffffffffffffffffffffffffffffffffff168473ffffffffffffffffffffffffffffffffffffffff167fddf252ad1be2c89b69c2b068fc378daa952ba7f163c4a11628f55a4df523b3ef60405160405180910390a46118b0838383611d14565b505050565b6000600660009054906101000a900473ffffffffffffffffffffffffffffffffffffffff16905081600660006101000a81548173ffffffffffffffffffffffffffffffffffffffff021916908373ffffffffffffffffffffffffffffffffffffffff1602179055508173ffffffffffffffffffffffffffffffffffffffff168173ffffffffffffffffffffffffffffffffffffffff167f8be0079c531659141344cd1fd0a4f28419497f9722a3daafe3b4186f6b6457e060405160405180910390a35050565b611995828260405180602001604052806000815250611d19565b5050565b8173ffffffffffffffffffffffffffffffffffffffff168373ffffffffffffffffffffffffffffffffffffffff161415611a08576040517f08c379a00000000000000000000000000000000000000000000000000000000081526004016119ff90612bbc565b60405180910390fd5b80600560008573ffffffffffffffffffffffffffffffffffffffff1673ffffffffffffffffffffffffffffffffffffffff16815260200190815260200160002060008473ffffffffffffffffffffffffffffffffffffffff1673ffffffffffffffffffffffffffffffffffffffff16815260200190815260200160002060006101000a81548160ff0219169083151502179055508173ffffffffffffffffffffffffffffffffffffffff168373ffffffffffffffffffffffffffffffffffffffff167f17307eab39ab6107e8899845ad3d59bd9653f200f220920489ca2b5937696c3183604051611af99190612a9f565b60405180910390a3505050565b611b1184848461164e565b611b1d84848484611d74565b611b5c576040517f08c379a0000000000000000000000000000000000000000000000000000000008152600401611b5390612adc565b60405180910390fd5b50505050565b60606000821415611baa576040518060400160405280600181526020017f30000000000000000000000000000000000000000000000000000000000000008152509050611d0a565b600082905060005b60008214611bdc578080611bc590613090565b915050600a82611bd59190612ea6565b9150611bb2565b60008167ffffffffffffffff811115611c1e577f4e487b7100000000000000000000000000000000000000000000000000000000600052604160045260246000fd5b6040519080825280601f01601f191660200182016040528015611c505781602001600182028036833780820191505090505b5090505b60008514611d0357600182611c699190612f31565b9150600a85611c7891906130d9565b6030611c849190612e50565b60f81b818381518110611cc0577f4e487b7100000000000000000000000000000000000000000000000000000000600052603260045260246000fd5b60200101907effffffffffffffffffffffffffffffffffffffffffffffffffffffffffffff1916908160001a905350600a85611cfc9190612ea6565b9450611c54565b8093505050505b919050565b505050565b505050565b611d238383611f0b565b611d306000848484611d74565b611d6f576040517f08c379a0000000000000000000000000000000000000000000000000000000008152600401611d6690612adc565b60405180910390fd5b505050565b6000611d958473ffffffffffffffffffffffffffffffffffffffff166120e5565b15611efe578373ffffffffffffffffffffffffffffffffffffffff1663150b7a02611dbe6114af565b8786866040518563ffffffff1660e01b8152600401611de09493929190612a53565b602060405180830381600087803b158015611dfa57600080fd5b505af1925050508015611e2b57506040513d601f19601f82011682018060405250810190611e2891906124bf565b60015b611eae573d8060008114611e5b576040519150601f19603f3d011682016040523d82523d6000602084013e611e60565b606091505b50600081511415611ea6576040517f08c379a0000000000000000000000000000000000000000000000000000000008152600401611e9d90612adc565b60405180910390fd5b805181602001fd5b63150b7a0260e01b7bffffffffffffffffffffffffffffffffffffffffffffffffffffffff1916817bffffffffffffffffffffffffffffffffffffffffffffffffffffffff191614915050611f03565b600190505b949350505050565b600073ffffffffffffffffffffffffffffffffffffffff168273ffffffffffffffffffffffffffffffffffffffff161415611f7b576040517f08c379a0000000000000000000000000000000000000000000000000000000008152600401611f7290612c5c565b60405180910390fd5b611f8481611443565b15611fc4576040517f08c379a0000000000000000000000000000000000000000000000000000000008152600401611fbb90612b5c565b60405180910390fd5b611fd060008383611d0f565b6001600360008473ffffffffffffffffffffffffffffffffffffffff1673ffffffffffffffffffffffffffffffffffffffff16815260200190815260200160002060008282546120209190612e50565b92505081905550816002600083815260200190815260200160002060006101000a81548173ffffffffffffffffffffffffffffffffffffffff021916908373ffffffffffffffffffffffffffffffffffffffff160217905550808273ffffffffffffffffffffffffffffffffffffffff16600073ffffffffffffffffffffffffffffffffffffffff167fddf252ad1be2c89b69c2b068fc378daa952ba7f163c4a11628f55a4df523b3ef60405160405180910390a46120e160008383611d14565b5050565b6000808273ffffffffffffffffffffffffffffffffffffffff163b119050919050565b8280546121149061302d565b90600052602060002090601f016020900481019282612136576000855561217d565b82601f1061214f57803560ff191683800117855561217d565b8280016001018555821561217d579182015b8281111561217c578235825591602001919060010190612161565b5b50905061218a919061218e565b5090565b5b808211156121a757600081600090555060010161218f565b5090565b60006121be6121b984612dbc565b612d97565b9050828152602081018484840111156121d657600080fd5b6121e1848285612feb565b509392505050565b6000813590506121f881613774565b92915050565b60008135905061220d8161378b565b92915050565b600081359050612222816137a2565b92915050565b600081519050612237816137a2565b92915050565b600082601f83011261224e57600080fd5b813561225e8482602086016121ab565b91505092915050565b60008083601f84011261227957600080fd5b8235905067ffffffffffffffff81111561229257600080fd5b6020830191508360018202830111156122aa57600080fd5b9250929050565b6000813590506122c0816137b9565b92915050565b6000602082840312156122d857600080fd5b60006122e6848285016121e9565b91505092915050565b6000806040838503121561230257600080fd5b6000612310858286016121e9565b9250506020612321858286016121e9565b9150509250929050565b60008060006060848603121561234057600080fd5b600061234e868287016121e9565b935050602061235f868287016121e9565b9250506040612370868287016122b1565b9150509250925092565b6000806000806080858703121561239057600080fd5b600061239e878288016121e9565b94505060206123af878288016121e9565b93505060406123c0878288016122b1565b925050606085013567ffffffffffffffff8111156123dd57600080fd5b6123e98782880161223d565b91505092959194509250565b6000806040838503121561240857600080fd5b6000612416858286016121e9565b9250506020612427858286016121fe565b9150509250929050565b6000806040838503121561244457600080fd5b6000612452858286016121e9565b9250506020612463858286016122b1565b9150509250929050565b60006020828403121561247f57600080fd5b600061248d848285016121fe565b91505092915050565b6000602082840312156124a857600080fd5b60006124b684828501612213565b91505092915050565b6000602082840312156124d157600080fd5b60006124df84828501612228565b91505092915050565b600080602083850312156124fb57600080fd5b600083013567ffffffffffffffff81111561251557600080fd5b61252185828601612267565b92509250509250929050565b60006020828403121561253f57600080fd5b600061254d848285016122b1565b91505092915050565b61255f81612f77565b82525050565b61256e81612f65565b82525050565b61257d81612f89565b82525050565b600061258e82612e02565b6125988185612e18565b93506125a8818560208601612ffa565b6125b1816131c6565b840191505092915050565b60006125c782612e0d565b6125d18185612e34565b93506125e1818560208601612ffa565b6125ea816131c6565b840191505092915050565b600061260082612e0d565b61260a8185612e45565b935061261a818560208601612ffa565b80840191505092915050565b600081546126338161302d565b61263d8186612e45565b9450600182166000811461265857600181146126695761269c565b60ff1983168652818601935061269c565b61267285612ded565b60005b8381101561269457815481890152600182019150602081019050612675565b838801955050505b50505092915050565b60006126b2603283612e34565b91506126bd826131d7565b604082019050919050565b60006126d5602683612e34565b91506126e082613226565b604082019050919050565b60006126f8602183612e34565b915061270382613275565b604082019050919050565b600061271b602583612e34565b9150612726826132c4565b604082019050919050565b600061273e601c83612e34565b915061274982613313565b602082019050919050565b6000612761601883612e34565b915061276c8261333c565b602082019050919050565b6000612784602483612e34565b915061278f82613365565b604082019050919050565b60006127a7601983612e34565b91506127b2826133b4565b602082019050919050565b60006127ca602c83612e34565b91506127d5826133dd565b604082019050919050565b60006127ed603883612e34565b91506127f88261342c565b604082019050919050565b6000612810602a83612e34565b915061281b8261347b565b604082019050919050565b6000612833602983612e34565b915061283e826134ca565b604082019050919050565b6000612856602083612e34565b915061286182613519565b602082019050919050565b6000612879602c83612e34565b915061288482613542565b604082019050919050565b600061289c600583612e45565b91506128a782613591565b600582019050919050565b60006128bf602083612e34565b91506128ca826135ba565b602082019050919050565b60006128e2601c83612e34565b91506128ed826135e3565b602082019050919050565b6000612905602183612e34565b91506129108261360c565b604082019050919050565b6000612928600083612e29565b91506129338261365b565b600082019050919050565b600061294b603183612e34565b91506129568261365e565b604082019050919050565b600061296e602883612e34565b9150612979826136ad565b604082019050919050565b6000612991601d83612e34565b915061299c826136fc565b602082019050919050565b60006129b4602c83612e34565b91506129bf82613725565b604082019050919050565b6129d381612fe1565b82525050565b60006129e58285612626565b91506129f182846125f5565b91506129fc8261288f565b91508190509392505050565b6000612a138261291b565b9150819050919050565b6000602082019050612a326000830184612565565b92915050565b6000602082019050612a4d6000830184612556565b92915050565b6000608082019050612a686000830187612565565b612a756020830186612565565b612a8260408301856129ca565b8181036060830152612a948184612583565b905095945050505050565b6000602082019050612ab46000830184612574565b92915050565b60006020820190508181036000830152612ad481846125bc565b905092915050565b60006020820190508181036000830152612af5816126a5565b9050919050565b60006020820190508181036000830152612b15816126c8565b9050919050565b60006020820190508181036000830152612b35816126eb565b9050919050565b60006020820190508181036000830152612b558161270e565b9050919050565b60006020820190508181036000830152612b7581612731565b9050919050565b60006020820190508181036000830152612b9581612754565b9050919050565b60006020820190508181036000830152612bb581612777565b9050919050565b60006020820190508181036000830152612bd58161279a565b9050919050565b60006020820190508181036000830152612bf5816127bd565b9050919050565b60006020820190508181036000830152612c15816127e0565b9050919050565b60006020820190508181036000830152612c3581612803565b9050919050565b60006020820190508181036000830152612c5581612826565b9050919050565b60006020820190508181036000830152612c7581612849565b9050919050565b60006020820190508181036000830152612c958161286c565b9050919050565b60006020820190508181036000830152612cb5816128b2565b9050919050565b60006020820190508181036000830152612cd5816128d5565b9050919050565b60006020820190508181036000830152612cf5816128f8565b9050919050565b60006020820190508181036000830152612d158161293e565b9050919050565b60006020820190508181036000830152612d3581612961565b9050919050565b60006020820190508181036000830152612d5581612984565b9050919050565b60006020820190508181036000830152612d75816129a7565b9050919050565b6000602082019050612d9160008301846129ca565b92915050565b6000612da1612db2565b9050612dad828261305f565b919050565b6000604051905090565b600067ffffffffffffffff821115612dd757612dd6613197565b5b612de0826131c6565b9050602081019050919050565b60008190508160005260206000209050919050565b600081519050919050565b600081519050919050565b600082825260208201905092915050565b600081905092915050565b600082825260208201905092915050565b600081905092915050565b6000612e5b82612fe1565b9150612e6683612fe1565b9250827fffffffffffffffffffffffffffffffffffffffffffffffffffffffffffffffff03821115612e9b57612e9a61310a565b5b828201905092915050565b6000612eb182612fe1565b9150612ebc83612fe1565b925082612ecc57612ecb613139565b5b828204905092915050565b6000612ee282612fe1565b9150612eed83612fe1565b9250817fffffffffffffffffffffffffffffffffffffffffffffffffffffffffffffffff0483118215151615612f2657612f2561310a565b5b828202905092915050565b6000612f3c82612fe1565b9150612f4783612fe1565b925082821015612f5a57612f5961310a565b5b828203905092915050565b6000612f7082612fc1565b9050919050565b6000612f8282612fc1565b9050919050565b60008115159050919050565b60007fffffffff0000000000000000000000000000000000000000000000000000000082169050919050565b600073ffffffffffffffffffffffffffffffffffffffff82169050919050565b6000819050919050565b82818337600083830152505050565b60005b83811015613018578082015181840152602081019050612ffd565b83811115613027576000848401525b50505050565b6000600282049050600182168061304557607f821691505b6020821081141561305957613058613168565b5b50919050565b613068826131c6565b810181811067ffffffffffffffff8211171561308757613086613197565b5b80604052505050565b600061309b82612fe1565b91507fffffffffffffffffffffffffffffffffffffffffffffffffffffffffffffffff8214156130ce576130cd61310a565b5b600182019050919050565b60006130e482612fe1565b91506130ef83612fe1565b9250826130ff576130fe613139565b5b828206905092915050565b7f4e487b7100000000000000000000000000000000000000000000000000000000600052601160045260246000fd5b7f4e487b7100000000000000000000000000000000000000000000000000000000600052601260045260246000fd5b7f4e487b7100000000000000000000000000000000000000000000000000000000600052602260045260246000fd5b7f4e487b7100000000000000000000000000000000000000000000000000000000600052604160045260246000fd5b6000601f19601f8301169050919050565b7f4552433732313a207472616e7366657220746f206e6f6e20455243373231526560008201527f63656976657220696d706c656d656e7465720000000000000000000000000000602082015250565b7f4f776e61626c653a206e6577206f776e657220697320746865207a65726f206160008201527f6464726573730000000000000000000000000000000000000000000000000000602082015250565b7f4552433732313a206d696e74696e6720707269636520697320746f6f206c6f7760008201527f2e00000000000000000000000000000000000000000000000000000000000000602082015250565b7f4552433732313a207472616e736665722066726f6d20696e636f72726563742060008201527f6f776e6572000000000000000000000000000000000000000000000000000000602082015250565b7f4552433732313a20746f6b656e20616c7265616479206d696e74656400000000600082015250565b7f4552433732313a207769746864726177206661696c65642e0000000000000000600082015250565b7f4552433732313a207472616e7366657220746f20746865207a65726f2061646460008201527f7265737300000000000000000000000000000000000000000000000000000000602082015250565b7f4552433732313a20617070726f766520746f2063616c6c657200000000000000600082015250565b7f4552433732313a206f70657261746f7220717565727920666f72206e6f6e657860008201527f697374656e7420746f6b656e0000000000000000000000000000000000000000602082015250565b7f4552433732313a20617070726f76652063616c6c6572206973206e6f74206f7760008201527f6e6572206e6f7220617070726f76656420666f7220616c6c0000000000000000602082015250565b7f4552433732313a2062616c616e636520717565727920666f7220746865207a6560008201527f726f206164647265737300000000000000000000000000000000000000000000602082015250565b7f4552433732313a206f776e657220717565727920666f72206e6f6e657869737460008201527f656e7420746f6b656e0000000000000000000000000000000000000000000000602082015250565b7f4552433732313a206d696e7420746f20746865207a65726f2061646472657373600082015250565b7f4552433732313a20617070726f76656420717565727920666f72206e6f6e657860008201527f697374656e7420746f6b656e0000000000000000000000000000000000000000602082015250565b7f2e6a736f6e000000000000000000000000000000000000000000000000000000600082015250565b7f4f776e61626c653a2063616c6c6572206973206e6f7420746865206f776e6572600082015250565b7f4552433732313a206d696e74696e672069732064697361626c65642e00000000600082015250565b7f4552433732313a20617070726f76616c20746f2063757272656e74206f776e6560008201527f7200000000000000000000000000000000000000000000000000000000000000602082015250565b50565b7f4552433732313a207472616e736665722063616c6c6572206973206e6f74206f60008201527f776e6572206e6f7220617070726f766564000000000000000000000000000000602082015250565b7f4552433732313a206d696e74696e6720776f756c6420657863656564206d617860008201527f20737570706c792e000000000000000000000000000000000000000000000000602082015250565b7f4552433732313a20746f6b656e20646f6573206e6f742065786973742e000000600082015250565b7f4552433732313a206d696e74696e6720776f756c6420657863656564206d617860008201527f207065722077616c6c65742e0000000000000000000000000000000000000000602082015250565b61377d81612f65565b811461378857600080fd5b50565b61379481612f89565b811461379f57600080fd5b50565b6137ab81612f95565b81146137b657600080fd5b50565b6137c281612fe1565b81146137cd57600080fd5b5056fea2646970667358221220b22da303b21b28ca0e6319e4582306b53888810e1230cdf237865f2fe18db76464736f6c63430008040033",
    "linkReferences": {},
    "deployedLinkReferences": {}
}